:020000040800F2
:1080000000000120BD830008E9810008D581000837
:10801000D1810008BD810008A9810008000000008E
:10802000000000000000000000000000A581000822
:10803000A1810008000000009D81000899810008CE
:1080400095810008958100089581000895810008B8
:1080500095810008958100089581000895810008A8
:10806000958100089581000895810008FD88000829
:10807000F9880008F5880008F1880008ED880008F4
:10808000E9880008E58800089581000800000000E4
:1080900000000000000000000000000095810008C2
:1080A0009581000895810008958100089581000858
:1080B0009581000895810008958100089581000848
:1080C0009581000895810008958100089581000838
:1080D000958100087985000895810008000000005E
:1080E0009581000895810008958100080000000036
:1080F000000000000000000000000000E18800080F
:108100000000000095810008958100089581000815
:10811000000000000000000000000000000000005F
:10812000DD880008D9880008D5880008D1880008B3
:10813000CD880008000000000000000000000000E2
:108140000000000000000000000000009581000811
:10815000C9880008C5880008C18800089581000802
:1081600095810008958100080000000000000000D3
:1081700000000000000000000000000000000000FF
:1081800000000000958100080000000000000000D1
:108190009581000800BEFEE7704700BF00BEFEE705
:1081A00000BEFEE700BEFEE71EF0040F0CBFEFF3BB
:1081B0000880EFF309807146824A10471EF0040FD1
:1081C0000CBFEFF30880EFF3098071467E4A104739
:1081D00000BEFEE71EF0040F0CBFEFF30880EFF3C4
:1081E00009807146794A104700BEFEE780B582B02B
:1081F00004468846084B5E6B9F6B9D6A074800F0FB
:10820000A3FCCDF800803B4632462946204600F0CC
:10821000F3FC00BEFEE700BF00ED00E0949700080D
:1082200080B582B004468846084B5E6B9F6B9D6AA2
:10823000074800F089FCCDF800803B4632462946CD
:10824000204600F0D9FC00BEFEE700BF00ED00E0D4
:10825000A49700082DE9F04182B004468846134BEC
:108260005E6B9F6B9D6A1B6B13F0020F0DD00F4B63
:10827000DB6A002B09DA4BF6AB6100F007FC20B19A
:108280004FF00042094BDA620CE0094800F05CFC58
:10829000CDF800803B4632462946204600F0ACFC33
:1082A00000BEFEE702B0BDE8F08100BF00ED00E0D7
:1082B000B097000800B583B000F0FCFB304B314AAA
:1082C0001360314A136031490CE00A684B6801F1D0
:1082D0000C04886803E01168196004330432984282
:1082E000F9D821462A4B9942EFD3264B1A68294BDD
:1082F0009A4204D1244B1A68274B9A4200D0FEE7D9
:108300001F4B264A1360264A1360264B0AE0194683
:1083100051F8082B5B6802E00020106004329A429A
:10832000FAD30B46204A9342F1D31C4B1B6813B976
:108330001B4B1B6803B1FEE700F0B8FB694601A8C0
:1083400000F0FAFB194C1A4B1C1BA410002504E08A
:10835000164B53F8253098470135AC42F8DC154CE4
:10836000154B1C1BA410002504E0124B53F82530BC
:1083700098470135AC42F8DC0099019800F0FCFB0D
:10838000BABADECA0000002074000020D0830008C2
:10839000E88300087856341232547698780000202A
:1083A00054010020E8830008F8830008F8830008DF
:1083B000F8830008F8830008F883000808B5FFF781
:1083C00079FF0000ED810008218200085582000835
:1083D000F49700080000002078000020F4970008BF
:1083E000000000100000001078000020580100205C
:0883F000000000100000001065
:108400000A4681B103680A498B4208D0094A93425F
:108410000BD0A2F55042934207D001207047064B83
:108420001A6000207047022070470020704700BF8C
:10843000001001400014014044010020E0B110B4DC
:1084400000234362C162C26103680D4A934209D0AE
:1084500002F58062934209D0A2F55042934205D0C2
:10846000012004E0074A1060002000E00020DA68E4
:1084700042F02002DA6001E00220704710BC704731
:10848000001001408400002000285CD030B4044675
:1084900090F83030012B58D1002380F8303000683C
:1084A000C36823F4405222F00C0261682369194327
:1084B000A3680B43134343F40043C36021680B6973
:1084C00023F44052E36813430B612068204B984229
:1084D00003D0A3F58063984214D16269D2001D4B8A
:1084E000B3FBF2F51C49B1FBF2F2642303FB152246
:1084F000D200B2FBF3F3013303F0070343EA0513A1
:10850000836016E0154B984213D16269D200114B7B
:10851000B3FBF2F51049B1FBF2F2642303FB152221
:108520001201B2FBF3F3013303F0070343EA05132F
:1085300083602268D36843F40053D360012384F836
:108540003030002002E002207047032030BC70472A
:10855000001401400024F40000105E5F004400405D
:10856000034602681068002151601A68136823F0FE
:1085700040031360704700BF38B51F4B1A6813687B
:108580001C68DD6814F0400F18D015F0400F15D0AE
:10859000116A906981420BD1012182F83010DA68AA
:1085A00022F04002DA60144B1868FFF7D9FF05E0AB
:1085B000906A415C5960136A0133136214F0200F12
:1085C00018D015F0200F15D00B4B1B68D96A5A6ACA
:1085D0001868406888545A6A01325A62D9698A42D6
:1085E00008D11A68D36823F02003D360034B1B68BB
:1085F00003B1984738BD00BF84000020440100202B
:10860000014A024B1A6070470400FA050CED00E0C5
:1086100020F0404310F0404005D111490A6B13434C
:108620000B630C207047B0F1804F05D10C494A6BA9
:1086300013434B630C207047B0F1004F05D108493C
:108640000A6C13430B640C207047B0F1404F05D106
:1086500003494A6C13434B640C2070470920704750
:1086600000380240F0280AD8420900F01F00012318
:1086700003FA00F0034B43F8220003207047012067
:10868000704700BF00E100E00F291BD810B4072994
:108690000BD8046A89000F238B4024EA030302FAF3
:1086A00001F11943016203200EE0446A0839890090
:1086B0000F238B4024EA030302FA01F119434162BC
:1086C000032001E00120704710BC7047A0B110B436
:1086D0000F2913D8012A13D83AB1012A12D1012344
:1086E00003FA01F1816103200DE01031012303FA47
:1086F00001F18161032006E000207047012002E0C3
:10870000022000E0032010BC704700BF00283DD0CD
:1087100030B403460568296882795200032000FAC4
:1087200002F421EA04041979014001FA02F2224319
:108730002A601C6861689A790125954021EA05053F
:108740001979C1F3800101FA02F22A4361680A43F0
:1087500062601D68E9689A79520000FA02F421EA21
:1087600004041979C1F3C10101FA02F22243EA605B
:108770001D68AA689979490000FA01F422EA040404
:108780005A7902FA01F32343AB6001E000207047FD
:1087900030BC7047044A136923F44073184340F017
:1087A00001001061704700BF003C0240F8B51F4651
:1087B00001F1774303F57C03234DAB423DD9234BB5
:1087C000DB6813F4803F3AD114463D460E46B0F5BF
:1087D000807F0FD001D838B117E0B0F5007F0FD0FF
:1087E000B0F5407F14D010E0FFF7D4FFE4B234704E
:1087F00000200BE0FFF7CEFFA4B23480002005E09C
:10880000FFF7C8FF3460002000E00120322307E0BA
:10881000FFF7C0FFC6E900450020F7E7013BDBB2E8
:108820000A4AD26812F4803F01D0002BF6D1074BE0
:10883000DB6813F4803F04D1F8BD0120F8BD0120AE
:10884000F8BD0120F8BD00BFFFFFFB77003C0240F0
:10885000052821D8134BDB6813F4803F1ED1114A41
:10886000136923F0780343EAC00343F4803343F0F1
:1088700002031361322301E0013BDBB2094AD268F3
:1088800012F4803F01D0002BF6D1064BDB6813F4C5
:10889000803F05D1002070470120704701207047BC
:1088A00001207047003C0240034B044A5A6002F129
:1088B00088325A60704700BF003C02402301674580
:1088C000704700BF704700BF704700BF704700BFD0
:1088D000704700BF704700BF704700BF704700BFC0
:1088E000704700BF704700BF704700BF704700BFB0
:1088F000704700BF704700BF704700BF704700BFA0
:10890000F0B585B02348FFF783FE0120FFF780FE16
:1089100002268DF80C60204C029409278DF80E7009
:1089200001258DF80D5002A8FFF7F0FE0722394609
:108930002046FFF7A9FE8DF8046000940A268DF802
:1089400006608DF805506846FFF7E0FE07223146C5
:108950002046FFF799FE114C4FF416536361104BFC
:1089600023600C23636000232361E360A36084F829
:1089700030502046FFF788FD2520FFF773FE094998
:108980002046FFF73DFD2A4607492046FFF756FDE2
:1089900005B0F0BD100000C000000240080100203A
:1089A00000100140C18B00083C010020224B9B6855
:1089B00003F00C03042B07D0082B09D0002B2DD17A
:1089C0001E4A1F4B1A602CE01E4A1D4B1A6028E0FD
:1089D000194B5A685B6803F03F0312F4800F09D00B
:1089E000184AB2FBF3F3144A5268C2F3881202FB2E
:1089F00003F308E0114AB2FBF3F30F4A5268C2F3E3
:108A0000881202FB03F30C4A5268C2F3014201329E
:108A10005200B3FBF2F30A4A136002E0074A084B24
:108A20001A60054B9B68C3F30313074AD15C044AE1
:108A30001368CB4013607047003802400024F400F4
:108A40000400002040787D01489600080C4B1A680D
:108A500042F001021A60002199601A6822F08472C3
:108A600022F480321A60074A5A601A6822F480227F
:108A70001A60D9604FF00062034B9A60704700BFE4
:108A8000003802401030002400ED00E083691A88AD
:108A90008A4207D10268033A012A05D8023383616A
:108AA00001207047002070470020704708B5FFF78D
:108AB0007DFF08BD08B5FFF7C9FF024B024A9A6067
:108AC00008BD00BF00ED00E0008000082DE9F04384
:108AD00085B004460F46435613BB0425284621465D
:108AE000ABBE04461FE03546102E28BF10250023DC
:108AF00006E014F9011B04AA1A4402F8101C013301
:108B0000AB42F6D304AA1344002203F8102CE94622
:108B10004FF0040840464946ABBE8046761B00E055
:108B20000E46002EDFD1384605B0BDE8F08300BF09
:108B300008B5FFF7CBFF08BD01230360014B0B60B5
:108B4000704700BF080000200FB400B583B004AB2D
:108B500053F8042B01938021064800F019F90028EE
:108B600003DD01460348FFF7E3FF03B05DF804EBC4
:108B700004B070478800002000B583B0FFF794FE72
:108B8000FFF7BEFE0C4E009600248DF8064001252E
:108B90008DF804508DF805402846FFF739FD6846EA
:108BA000FFF7B4FD2A4621463046FFF78FFD034804
:108BB000FFF7CAFFFEE700BF00000240589600081A
:108BC00008B50A4B1B78102B0FD10948FFF7BCFFE3
:108BD0000120FFF73DFE4FF05532002305494FF4C9
:108BE0000070FFF7E3FDFFF70BFD08BD3C0100201F
:108BF000689600080C400008F8B504460D46174674
:108C00001E462648FFF7A0FF21682548FFF79CFF76
:108C100061682448FFF798FFA1682348FFF794FF95
:108C2000E1682248FFF790FF21692148FFF78CFF98
:108C300061692048FFF788FFA1691F48FFF784FF9B
:108C4000E1691E48FFF780FF1D48FFF77DFF2946B9
:108C50001C48FFF779FF1C4CE16A1C48FFF774FFC2
:108C6000216B1B48FFF770FFE16B1A48FFF76CFFA1
:108C700015F0800F03D039461748FFF765FF15F44C
:108C8000004F03D031461548FFF75EFF1448FFF749
:108C90005BFF06991348FFF757FFF8BD7896000869
:108CA0008896000898960008A8960008B8960008CC
:108CB000C8960008D8960008E8960008F8960008BC
:108CC000089700081497000800ED00E024970008BA
:108CD00034970008449700085497000864970008E8
:108CE000749700087C97000808B50D4B1B6813B9F2
:108CF0000C4A0B4B1A600A4B1A68C31C23F003037F
:108D0000134409498B4206D900F010F80C23036084
:108D10004FF0FF3008BD02490B60104608BD00BF90
:108D20007C0000205801002000FC0020014B186846
:108D3000704700BF7000002030B5141E05469BB080
:108D4000184604DA8B232B604FF0FF301DE04FF400
:108D50000273ADF80C3014BF04F1FF3323460293C5
:108D600005934FF6FF7300910491ADF80E30024663
:108D70001E9B6946284600F073F8431CBCBF8B233A
:108D80002B6014B1009B00221A701BB030BD000094
:108D900007B5009313460A46014603480068FFF7EB
:108DA000CBFF03B05DF804FB700000202DE9F04715
:108DB0008E689E4282460C46914698463ED88A89E5
:108DC00012F4906F3AD0256809696F1A6569022319
:108DD00005EB450595FBF3F57B1C43449D4238BFED
:108DE0001D4653050FD5294600F08EFB064698B167
:108DF0003A46216900F014FBA38923F4906343F001
:108E00008003A38113E02A4600F0DCFB064670B91C
:108E10002169504600F02AFB0C23CAF80030A389D0
:108E200043F04003A3814FF0FF30BDE8F087266197
:108E300065613E44ED1B2660A5604646464528BF59
:108E4000464632464946206800F0F5FAA3689B1B67
:108E5000A36023681E4426600020BDE8F087000060
:108E60002DE9F04F9DB0804603938B891C060D467B
:108E700016460DD50B695BB9402100F045FB286013
:108E8000286118B90C23C8F80030CDE040236B618D
:108E90000023099320238DF82930DFF89CB130237B
:108EA0008DF82A3037463C4614F8013B1BB9B7EB26
:108EB000060910D003E0252BF9D02746F3E74B46EF
:108EC000324629464046FFF771FF013000F0A78087
:108ED000099B4B4409933B78002B00F0A0800023B2
:108EE0004FF0FF3204930793059206938DF85330A9
:108EF0001A930126052221784E4800F041FA671C9A
:108F0000049B38B14B4A801A06FA00F018430490CB
:108F10003C46EFE7D90644BF20228DF853201A07BC
:108F200044BF2B228DF8532022782A2A03D0079A97
:108F300000210A200BE0039A111D12680391002AF8
:108F400010DA524243F00200079204900BE02746E9
:108F500001343B78303B092B03D800FB023201215E
:108F6000F5E701B107923B782E2B1ED17B782A2B97
:108F70000AD1039B1A1D1B680392002BB8BF4FF048
:108F8000FF330237059310E000230593781C194640
:108F90000A24074601303A78303A092A03D804FBFC
:108FA00001210123F5E703B1059103223978224815
:108FB00000F0E6F940B14023CBEB000003FA00F0EB
:108FC000049B18430490013739781C488DF8281009
:108FD00006227E1C00F0D4F988B1194B33B9039BEB
:108FE000073323F007030833039314E003AB009324
:108FF0002A46144B04A94046AFF3008007E003ABB8
:1090000000932A460F4B04A9404600F093F8B0F1B4
:10901000FF3F824603D0099B5344099342E7AB8943
:109020005B0601D4099801E04FF0FF301DB0BDE8A8
:10903000F08F00BFC0970008C6970008CA970008C5
:1090400000000000AD8D00082DE9F04791461F4655
:109050000A698B68DDF820809342B8BF1346C9F8CF
:10906000003091F8432006460C4612B10133C9F88E
:1090700000302368990642BFD9F800300233C9F89E
:109080000030256815F0060510D104F1190A07E033
:109090000123524639463046C04701301AD00135C7
:1090A000E368D9F800209B1A9D42F1DB94F8433025
:1090B0002268003318BF012392060FD5E1185A1C0D
:1090C000302081F84300224494F8451082F8431080
:1090D000023303E04FF0FF30BDE8F08704F14302B4
:1090E00039463046C0470130F4D02268D9F80050E4
:1090F000E36802F00602042A08BF5D1B2269A36828
:109100000CBF25EAE57500259342C4BF9B1AED18F4
:109110004FF000091A344D4509D001232246394643
:109120003046C0470130D5D009F10109F3E70020EE
:10913000BDE8F0872DE9F04317460A7E85B06E2A18
:10914000984606460C460C9B01F1430E00F0AE809B
:1091500011D8632A22D009D8002A00F0BB80582AEF
:1091600040F0CA8081F84520834955E0642A1ED02A
:10917000692A1CD0C0E0732A00F0B08009D86F2A99
:109180002ED0702A40F0B8800A6842F020020A60AF
:109190003EE0752A24D0782A3AD0ADE01A6801F171
:1091A0004205111D1960136884F84230A8E0216857
:1091B0001A6811F0800F02D0111D196008E011F03B
:1091C000400F02F10401196002D0B2F9003000E052
:1091D0001368002B3CDA2D225B4284F8432037E0F1
:1091E00021681A6811F0800F02D0111D196007E084
:1091F00011F0400F02F10401196001D0138800E062
:109200001368227E5C496F2A14BF0A2208221BE0E1
:1092100078225A4984F845202268186812F0800F95
:1092200000F104051D6003D1550601D5038800E057
:109230000368D00744BF42F0200222601BB92268B5
:1092400022F0200222601022002084F8430001E076
:1092500049490A226568A560002D08DB206820F0D6
:10926000040020602BB9002D7DD175460CE0002B49
:1092700079D07546B3FBF2F002FB1033CB5C05F8F6
:10928000013D03460028F5D1082A0BD12368DA07EF
:1092900008D5236962689A42DEBF302305F8013C95
:1092A00005F1FF35C5EB0E0323612EE008681A684F
:1092B000496910F0800F03D0101D1860136808E092
:1092C00010F0400F02F104001860136801D01980FB
:1092D00000E0196000232361754616E01A68111D2D
:1092E0001960156862680021284600F049F808B145
:1092F000401B6060636804E004F1420584F842208A
:1093000001232361002384F84330CDF800803B46DD
:1093100003AA21463046FFF797FE013002D14FF0F5
:10932000FF3026E023692A4639463046C0470130DF
:10933000F5D023689B0710D5002504F1190907E033
:1093400001234A4639463046C0470130E7D001354F
:10935000E368039A9B1A9D42F2DBE068039B984204
:10936000B8BF184605E00B7884F8423004F1420596
:109370008AE705B0BDE8F083D1970008E2970008BE
:1093800001F0FF01102A2BDB10F0070F08D010F8B6
:10939000013B013A8B422DD010F0070F42B3F6D1BA
:1093A000F0B441EA012141EA014122F007047FF0D3
:1093B00000070023F0E80256083C85EA010586EA2A
:1093C000010685FA47F5A3FA87F586FA47F6A5FA66
:1093D00087F68EB9EED1F0BC01F0FF0102F0070272
:1093E00032B110F8013B013A83EA010313B1F8D11D
:1093F0000020704701387047002D06BF35460338FE
:10940000073815F0010F07D1013015F4807F02BF36
:10941000013015F4C03F0130F0BC0138704700BF87
:1094200010B5431E0A44914204D011F8014B03F8D1
:10943000014FF8E710BD884210B501EB020301D8D7
:10944000421E0BE09842FBD28118D21AD34204D0BC
:1094500013F8014D01F8014DF8E710BD994204D011
:1094600011F8014B02F8014FF8E710BD38B5054679
:10947000002946D051F8043C0C1F002BB8BFE4185B
:1094800000F0D6F81F4A1368114613B963601460E0
:1094900032E0A3420ED92268A018834204BF1868A4
:1094A0005B68636004BF121822600C6024E0A24273
:1094B00003D813465A68002AF9D118681918A1422E
:1094C0000BD12168014458188242196014D11068E8
:1094D00052685A60014419600EE002D90C232B60D7
:1094E0000AE021686018824204BF10685268626016
:1094F00004BF091821605C602846BDE8384000F0D0
:1095000098B838BD4C01002070B5CD1C25F003057E
:1095100008350C2D38BF0C25002D064601DBA9426D
:1095200002D90C23336046E000F082F8234B1C681C
:109530001A462146A1B10B685B1B0ED40B2B03D935
:109540000B60CC18CD501EE08C420DBF63684B6899
:109550006360136018BF0C4615E00C464968E9E7E4
:10956000174C23681BB9304600F052F8206029469A
:10957000304600F04DF8431C18D0C41C24F00304FE
:10958000A0420DD12560304600F053F804F10B00E5
:10959000231D20F00700C31A0ED05A42E25070BDBE
:1095A000211A304600F034F80130EBD10C2333603F
:1095B000304600F03EF8002070BD00BF4C01002096
:1095C00048010020F8B5074615460E4621B9114658
:1095D000BDE8F840FFF798BF1AB9FFF747FF2846E4
:1095E000F8BD00F027F885420ED929463846FFF726
:1095F0008BFF044650B131462A46FFF711FF314632
:109600003846FFF733FF01E03046F8BD2046F8BD8D
:1096100038B5064C0023054608462360FFF764FB77
:10962000431C02D1236803B12B6038BD50010020D8
:109630007047704751F8040C0028BEBF091851F854
:10964000043CC0180438704700000000000000000F
:10965000010203040607080948656C6C6F206672F6
:109660006F6D204170700A005570646174652052FE
:109670006571200A00000000537461636B206672FC
:10968000616D653A0A000000205230203D202025FF
:109690003038580A00000000205231203D2020259B
:1096A0003038580A00000000205232203D2020258A
:1096B0003038580A00000000205233203D20202579
:1096C0003038580A0000000020523132203D202559
:1096D0003038580A00000000204C52203D20202540
:1096E0003038580A00000000205043203D2020253B
:1096F0003038580A0000000020505352203D2025E9
:109700003038580A000000004653522F4641523A62
:109710000A0000002043465352203D2020253038C7
:10972000580A00002048465352203D20202530385A
:10973000580A00002044465352203D20202530384E
:10974000580A00002041465352203D202025303841
:10975000580A0000204D4D464152203D202530380A
:10976000580A00002042464152203D202025303832
:10977000580A00004D6973630A000000204C522F04
:109780004558435F52455455524E3D202530385878
:109790000A0000005B55736167654661756C745D16
:1097A0000A0000005B4275734661756C745D0A00C7
:1097B0005B486172644661756C745D0A000000006C
:1097C000232D302B2000686C4C00656667454647AA
:1097D000003031323334353637383941424344452D
:1097E000460030313233343536373839616263649C
:0397F000656600AB
:1097F400785634120024F400800000200000000099
:109804000000000000000000000000000000000054
:109814000000000000000000000000000000000044
:109824000000000000000000000000000000000034
:109834000000000000000000000000000000000024
:109844000000000000000000000000000000000014
:109854000000000000000000000000000000000004
:08986400100000203254769838
:04000005080082B5B8
:00000001FF
