:020000040800F2
:1000000000000120C5020008CD020008D10200084E
:1000100045030008490300089103000800000000A0
:10002000000000000000000000000000D9030008EC
:10003000DD03000800000000E1030008C10D000816
:10004000F5030008F5030008F5030008F5030008B0
:10005000F5030008F5030008F5030008F5030008A0
:10006000F5030008F5030008F5030008F503000890
:10007000F5030008F5030008F5030008F503000880
:10008000F5030008F5030008F50300080000000070
:10009000000000000000000000000000F503000860
:1000A000F5030008F5030008F5030008F503000850
:1000B000F5030008F5030008F5030008F503000840
:1000C000F5030008F5030008F5030008F503000830
:1000D000F5030008F5030008F50300080000000020
:1000E000F5030008F5030008F50300080000000010
:1000F000000000000000000000000000F503000800
:1001000000000000F5030008F5030008F5030008EF
:1001100000000000000000000000000000000000DF
:10012000F5030008F5030008F5030008F5030008CF
:10013000F5030008000000000000000000000000BF
:10014000000000000000000000000000F5030008AF
:10015000F5030008F5030008F5030008F50300089F
:10016000F5030008F503000800000000000000008F
:10017000000000000000000000000000000000007F
:1001800000000000F503000800000000000000006F
:10019000F503000800B583B000F0BCF9384B394ACC
:1001A0001360394A136039490CE00A684B6801F161
:1001B0000C04886803E01168196004330432984223
:1001C000F9D82146324B9942EFD32E4B1A68314B66
:1001D0009A4204D12C4B1A682F4B9A4200D0FEE76A
:1001E000274B2E4A13602E4A13602E4B0AE0194605
:1001F00051F8082B5B6802E00020106004329A423C
:10020000FAD30B46284A9342F1D3244B1B6813B907
:10021000234B1B6803B1FEE700F088F9694601A88B
:1002200000F022F9214C224B1C1BA410002504E0F5
:100230001E4B53F8253098470135AC42F8DC1D4C75
:100240001D4B1C1BA410002504E01A4B53F825304D
:1002500098470135AC42F8DC0099019800F060FF46
:100260000546164C164B1C1BA41004E0013C134B16
:1002700053F824309847002CF8DC284600F0D0F8DA
:10028000BABADECA0000002088000020F803000887
:100290001004000878563412325476988C000020EE
:1002A0005801002010040008200400082004000861
:1002B000200400082004000820040008200400088E
:1002C0002004000808B5FFF765FF00BF00BEFEE789
:1002D0001EF0040F0CBFEFF30880EFF309807146A6
:1002E000414A10472DE9F04182B004468846134B3D
:1002F0005E6B9F6B9D6A1B6B13F0020F0DD00F4B53
:10030000DB6A002B09DA4BF6AB6100F08BF920B108
:100310004FF00042094BDA620CE0094800F0ACF8FB
:10032000CDF800803B4632462946204600F002F9CF
:1003300000BEFEE702B0BDE8F08100BF00ED00E0C6
:10034000841B000800BEFEE71EF0040F0CBFEFF395
:100350000880EFF309807146244A10472DE9F041E7
:1003600082B004468846084B5E6B9F6B9D6A0748C7
:1003700000F082F8CDF800803B4632462946204600
:1003800000F0D8F800BEFEE700ED00E0941B000886
:100390001EF0040F0CBFEFF30880EFF309807146E5
:1003A000134A10472DE9F04182B004468846084BB5
:1003B0005E6B9F6B9D6A074800F05EF8CDF8008089
:1003C0003B4632462946204600F0B4F800BEFEE720
:1003D00000ED00E0A01B000800BEFEE700BEFEE747
:1003E00000BEFEE770470000E50200085D0300085C
:0803F000A503000800BEFEE7B2
:1003F800C81C0008000000208C000020C81C000851
:1004080000000010000000108C0000205C0100209B
:080418000000001000000010BC
:10042000FEE700BF08B50D4B1B6813B90C4A0B4B18
:100430001A600A4B1A68C31C23F0030313440949CA
:100440008B4206D900F07EFE0C2303604FF0FF3094
:1004500008BD02490B60104608BD00BF9000002097
:100460005C01002000FC002001230360014B0B60B5
:10047000704700BF040000200FB400B583B004AB88
:1004800053F8042B01938021064800F08DFE0028CC
:1004900003DD0146034800F039F803B05DF804EBD2
:1004A00004B07047980000202DE9F04385B0044661
:1004B0000F46435613BB042528462146ABBE0446CF
:1004C0001FE03546102E28BF1025002306E014F942
:1004D000011B04AA1A4402F8101C0133AB42F6D3E4
:1004E00004AA1344002203F8102CE9464FF0040834
:1004F00040464946ABBE8046761B00E00E46002EC5
:10050000DFD1384605B0BDE8F08300BF08B5FFF77E
:10051000CBFF08BD08B500F095F8024B024A9A607F
:1005200008BD00BF00ED00E00000000808B500F0C5
:10053000A9F808BDF8B504460D4617461E462648DC
:10054000FFF79AFF21682548FFF796FF6168244866
:10055000FFF792FFA1682348FFF78EFFE16822486A
:10056000FFF78AFF21692148FFF786FF616920486C
:10057000FFF782FFA1691F48FFF77EFFE1691E4870
:10058000FFF77AFF1D48FFF777FF29461C48FFF762
:1005900073FF1C4CE16A1C48FFF76EFF216B1B4880
:1005A000FFF76AFFE16B1A48FFF766FF15F0800F4F
:1005B00003D039461748FFF75FFF15F4004F03D00B
:1005C00031461548FFF758FF1448FFF755FF0699C5
:1005D0001348FFF751FFF8BD681A0008781A0008A1
:1005E000881A0008981A0008A81A0008B81A000803
:1005F000C81A0008D81A0008E81A0008F81A0008F3
:10060000041B000800ED00E0141B0008241B000878
:10061000341B0008441B0008541B0008641B00081E
:100620006C1B000883691A888A4207D10268033A62
:10063000012A05D8023383610120704700207047EA
:10064000002070470C4B1A6842F001021A6000212A
:1006500099601A6822F0847222F480321A60074A84
:100660005A601A6822F480221A60D9604FF0006242
:10067000034B9A60704700BF0038024010300024DE
:1006800000ED00E0224B9B6803F00C03042B07D025
:10069000082B09D0002B2DD11E4A1F4B1A602CE0CD
:1006A0001E4A1D4B1A6028E0194B5A685B6803F01C
:1006B0003F0312F4800F09D0184AB2FBF3F2144B37
:1006C0005B68C3F3881303FB02F208E0114AB2FB34
:1006D000F3F30F4A5168C1F3881101FB03F20C4B8D
:1006E0005B68C3F3014301335B00B2FBF3F30A4AD7
:1006F000136002E0074A084B1A60054B9B68C3F37E
:100700000313074AD15C044A1368CB401360704757
:10071000003802400024F4000C00002040787D01E5
:10072000B01B000800283DD030B403460568296896
:1007300082795200032000FA02F421EA04041979B4
:10074000014001FA02F222432A601C6861689A792A
:100750000125954021EA05051979C1F3800101FAC7
:1007600002F22A4361680A4362601D68E9689A7967
:10077000520000FA02F421EA04041979C1F3C1011C
:1007800001FA02F22243EA601D68AA6899794900D9
:1007900000FA01F422EA04045A7902FA01F323432D
:1007A000AB6001E00020704730BC704790B10F296A
:1007B00012D8012A12D832B1012A11D102FA01F15C
:1007C0008161032070471031012202FA01F1816139
:1007D00003207047002070470120704702207047B7
:1007E0000320704750B15AB10F290BD8036923FA7F
:1007F00001F101F0010111700320704700207047E2
:10080000002070470120704708B5044B002293F880
:100810005410186DFFF7CAFF08BD00BFC01B0008C9
:1008200038B50546134C002294F84C10A06CFFF725
:10083000BDFF002294F84410206CFFF7B7FF00249E
:100840000DE00C4B45FA04F203EBC40102F0010287
:10085000097953F83400FFF7A9FF0134E4B2072CFB
:10086000EFD9044B012293F85410186DFFF79EFF47
:1008700038BD00BFC01B000810B582B02D4B1B78DF
:10088000012B05D100222B4B1A70FFF7BDFF4DE065
:10089000294B1B78052B49D8DFE803F00327313BB0
:1008A0004845264A13780133DBB21370132B15D851
:1008B0003CE0234B53F83420009203EBC4031B7934
:1008C0008DF8063009238DF8043000238DF80530AB
:1008D0006846FFF727FF0134E4B200E000240A2C49
:1008E000E7D90122144B1A7020E03820FFF798FF57
:1008F0000122104B1A7002220F4B1A7016E00C20C6
:10090000FFF78EFF01220B4B1A7003220A4B1A705D
:100910000CE00120FFF784FF0122064B1A7005222C
:10092000054B1A7002E00422034B1A70024B187830
:1009300002B010BD35010020320100202F0100203F
:10094000C01B000810B5094B1B78012B07D10024F0
:10095000064B1C70FFF758FF054B1C7010BD0120A3
:10096000FFF75EFF0122014B1A7010BD3401002019
:100970003001002038B50546134C002294F84C1085
:10098000A06CFFF713FF012294F84410206CFFF7CE
:100990000DFF00240DE00C4B45FA04F203EBC401FB
:1009A00002F00102097953F83400FFF7FFFE013429
:1009B000E4B2072CEFD9044B012293F85410186DC0
:1009C000FFF7F4FE38BD00BFC01B000808B5214B7F
:1009D0001B78012B05D100221E4B1A70FFF714FF64
:1009E00008BD1D4B1B7813B1012B18D008BD1B4B44
:1009F0001B7C13B9194B587C07E0012B04D1174B12
:100A0000587C4030C0B200E0002080F08000FFF74A
:100A100007FF01230F4A13700F4A137008BD104BD4
:100A20001B780E4AD05648B900230B4A1370094A66
:100A300013700B4A13700B4A137008BDC0B2FFF756
:100A400099FF0122034B1A70054A13780133137082
:100A500008BD00BF310100202E0100201C01002034
:100A6000330100203001002008B50B4B1B78042B0C
:100A700004D0FFF701FF084B187008BD074B1B7827
:100A8000012B02D0022B03D008BDFFF79FFF08BD4A
:100A9000FFF758FF08BD00BF1801002030010020FB
:100AA0000A4B1B7873B930B40546094C0068696875
:100AB000AA68EB680FC42B8A23800122034B1A70AB
:100AC000002001E00120704730BC70473001002059
:100AD0001C010020F0B583B0002413E01A4B53F83A
:100AE0003420009203EBC4035B688DF806300823C2
:100AF0008DF8043000238DF805306846FFF712FEAC
:100B00000134E4B2032CE9D9002418E00F4B53F868
:100B10003450009503EBC4031E798DF8066001275D
:100B20008DF8047000238DF805306846FFF7FAFD54
:100B30003A4631462846FFF739FE3C44E4B2032CDE
:100B4000E4D903B0F0BD00BF181C0008481C000821
:100B500010B582B001238DF8053000238DF80730E1
:100B60004EE09DF8074039489DF8073000EBC3037D
:100B70000022197950F83400FFF718FE00238DF891
:100B8000063013E09DF8064031489DF8063000EB32
:100B9000C3030DF10502197950F83400FFF722FE66
:100BA0009DF806300133DBB28DF806309DF8063033
:100BB000DBB2032B03D89DF80530012BE2D09DF862
:100BC000074022489DF8073000EBC3030122197942
:100BD00050F83400FFF7EAFD9DF8053053B99DF851
:100BE0000620511E9DF80730DBB21A4A02EB810243
:100BF000D35C0BE09DF807300133DBB28DF8073092
:100C00009DF80730DBB2032BABD90023124A1278D0
:100C1000934204D111490A7801320A7002E000219E
:100C20000E4A11700D4A1278052A0AD123B90C4ACE
:100C300012780AB10B490A70094A13700021074A59
:100C40001170054A137002B010BD00BF481C0008A7
:100C5000181C0008381C000837010020380100204B
:100C6000390100203601002028B1044B19780170A9
:100C70000020187070470120704700BF3601002027
:100C800020F0404310F0404005D111490A6B134356
:100C90000B630C207047B0F1804F05D10C494A6BB3
:100CA00013434B630C207047B0F1004F05D1084946
:100CB0000A6C13430B640C207047B0F1404F05D110
:100CC00003494A6C13434B640C207047092070475A
:100CD000003802400122014B1A7070473A0100208F
:100CE00010B5114B1B682BB91048FFF7C5FB01224B
:100CF0000D4B1A60002410E00D4B03EBC4035B683E
:100D0000094A1168B1FBF3F203FB12131BB9084B3C
:100D100053F8343098470134E4B2032CECD9024A3A
:100D200013680133136010BD3C010020681C0008EB
:100D3000741C000808B500F019F8034800F03AF8F0
:100D4000012000F01FF808BDD50C000808B500F020
:100D500029F8054B1B78012BFBD10022024B1A709E
:100D6000FFF7BEFFF5E700BF3A010020044B1A6809
:100D700022F004021A601A6842F002021A607047F8
:100D800010E000E04FF47A5303FB00F0C008B0F12C
:100D9000807F01D36FF07F40014B5860704700BFE8
:100DA00010E000E0024A136843F00103136070474B
:100DB00010E000E008B1014A1060704740010020D7
:100DC00008B5024B1B6803B1984708BD40010020DD
:100DD000002304E02021074AD1540133DBB20F2B5A
:100DE000F8D90023044A1370044A1370044A13709C
:100DF000704700BF100000204A010020450100207C
:100E00004401002098B93022154B5A54704703EB27
:100E10008303580083B21348A0FB0240C00800EBD4
:100E200080056C00121B13449BB282B202E070B4C6
:100E300002460123002AEAD100204618094AA2FBF3
:100E40000342D20802EB82056C001B1B3033044CBA
:100E5000A35593B2013080B2012BEED170BC704724
:100E600010000020CDCCCCCC10B582B00023ADF862
:100E700006300DF10500FFF7F7FE9DF80530002B59
:100E800000F0A3809A4A1278012A62D012B1022A95
:100E90004BD09AE0A3F13002D2B2092A2AD8954A5F
:100EA000127892B9FFF794FF9DF8052092490B78CC
:100EB0001344303B0B7091490B78581C08709049D3
:100EC000CA5401228B4B1A707FE08B48017801EBEA
:100ED00081014A001A44303A027088490A78501C4D
:100EE000087087498B540022824B1A700222804B73
:100EF0001A706AE02F2B05D02A2B03D02D2B01D09E
:100F00002B2B62D17B4A1278012A5ED17D4A137065
:100F10007A490A78501C087079498B540122744B25
:100F20001A700022734B1A704FE02F2B05D02A2B1A
:100F300003D02D2B01D02B2B47D1724A13706F4950
:100F40000A78501C08706E498B540122684B1A7045
:100F50003BE0A3F13002D2B2092A28D8654A1278C0
:100F600072B969490A781A44303A0A7063490A78B2
:100F7000501C087062498B5401225E4B1A7024E0A9
:100F80006148017801EB81014A001A44303A02704D
:100F90005A490A78501C087059498B540023554A05
:100FA0001370534A13700122584B1A700DE03D2BF9
:100FB0000BD1504B1B78012B07D100234C4A1370E7
:100FC0000121524A11704B4A1370504B1B78012B70
:100FD00040F08B8000224D4B1A7048490A78531C10
:100FE000DBB20B703D2046498854464A12782B2AC2
:100FF00007D1414B1A78444B1B781344ADF80630A7
:101000002EE02A2A08D13C4B1B783F4A127803FB7A
:1010100002F3ADF8063023E02D2A15D1364A1178B7
:10102000394A1278914204D38A1A92B2ADF8062056
:1010300016E0521A92B2ADF80620591C2F4A1170D0
:101040002D212F4AD1540BE02F4B1B7813B9ADF84B
:10105000063005E0284A1278B2FBF3F3ADF806300B
:10106000BDF80600254B19784A1C1A7080B2FFF7AC
:10107000C9FE244B1B782F2B25D11F4B1A786423D4
:1010800003FB02F3204A127893FBF2F3BDF806202B
:1010900092B2C2EB422102EB8101C2EBC10291008C
:1010A0000B449BB2ADF80630144B1A78511CC9B2F0
:1010B00019702E2412488454BDF806004A1C1A7078
:1010C00080B2FFF79FFE104B1B7873B90B4B1B7858
:1010D000D91E0B4A45205054981E52211154581EB7
:1010E00011544F20D0540133D15402B010BD00BF71
:1010F00049010020480100204A010020440100204D
:10110000100000204701002045010020460100207A
:1011100008B50248FFF7C4FC08BD00BF100000205E
:1011200008B50120FFF7ACFD0220FFF7A9FD042060
:10113000FFF7A6FDFFF7CEFCFFF7FCFDFFF706FE6D
:10114000002008BD014B1868704700BF84000020D4
:1011500030B5141E05469BB0184604DA8B232B606D
:101160004FF0FF301DE04FF40273ADF80C3014BFA8
:1011700004F1FF332346029305934FF6FF7300916A
:101180000491ADF80E3002461E9B6946284600F0D9
:1011900073F8431CBCBF8B232B6014B1009B00224F
:1011A0001A701BB030BD000007B5009313460A4605
:1011B000014603480068FFF7CBFF03B05DF804FB6E
:1011C000840000202DE9F0478E689E4282460C463E
:1011D000914698463ED88A8912F4906F3AD0256895
:1011E00009696F1A6569022305EB450595FBF3F55F
:1011F0007B1C43449D4238BF1D4653050FD52946ED
:1012000000F092FB064698B13A46216900F018FBBF
:10121000A38923F4906343F08003A38113E02A465B
:1012200000F0E0FB064670B92169504600F02EFB45
:101230000C23CAF80030A38943F04003A3814FF088
:10124000FF30BDE8F087266165613E44ED1B2660F6
:10125000A5604646464528BF464632464946206870
:1012600000F0F9FAA3689B1BA36023681E44266064
:101270000020BDE8F08700002DE9F04F9DB08046CA
:1012800003938B891C060D4616460DD50B695BB979
:10129000402100F049FB2860286118B90C23C8F8E8
:1012A0000030CDE040236B610023099320238DF8AB
:1012B0002930DFF89CB130238DF82A3037463C4680
:1012C00014F8013B1BB9B7EB060910D003E0252B3E
:1012D000F9D02746F3E74B46324629464046FFF70A
:1012E00071FF013000F0A780099B4B4409933B78C4
:1012F000002B00F0A08000234FF0FF3204930793EF
:10130000059206938DF853301A9301260522217811
:101310004E4800F045FA671C049B38B14B4A801ACE
:1013200006FA00F0184304903C46EFE7D90644BFA4
:1013300020228DF853201A0744BF2B228DF853200A
:1013400022782A2A03D0079A00210A200BE0039A68
:10135000111D12680391002A10DA524243F0020074
:10136000079204900BE0274601343B78303B092B71
:1013700003D800FB02320121F5E701B107923B7867
:101380002E2B1ED17B782A2B0AD1039B1A1D1B689A
:101390000392002BB8BF4FF0FF330237059310E0E4
:1013A00000230593781C19460A24074601303A7831
:1013B000303A092A03D804FB01210123F5E703B1E0
:1013C000059103223978224800F0EAF940B1402320
:1013D000CBEB000003FA00F0049B184304900137A4
:1013E00039781C488DF8281006227E1C00F0D8F9A8
:1013F00088B1194B33B9039B073323F00703083334
:10140000039314E003AB00932A46144B04A940460F
:10141000AFF3008007E003AB00932A460F4B04A90B
:10142000404600F093F8B0F1FF3F824603D0099B9D
:101430005344099342E7AB895B0601D4099801E064
:101440004FF0FF301DB0BDE8F08F00BF941C0008C6
:101450009A1C00089E1C000800000000C51100082E
:101460002DE9F04791461F460A698B68DDF8208018
:101470009342B8BF1346C9F8003091F8432006469E
:101480000C4612B10133C9F800302368990642BFF7
:10149000D9F800300233C9F80030256815F0060588
:1014A00010D104F1190A07E00123524639463046AB
:1014B000C04701301AD00135E368D9F800209B1AE3
:1014C0009D42F1DB94F843302268003318BF0123BA
:1014D00092060FD5E1185A1C302081F843002244AF
:1014E00094F8451082F84310023303E04FF0FF30C8
:1014F000BDE8F08704F1430239463046C047013069
:10150000F4D02268D9F80050E36802F00602042AF9
:1015100008BF5D1B2269A3680CBF25EAE57500259D
:101520009342C4BF9B1AED184FF000091A344D4581
:1015300009D00123224639463046C0470130D5D074
:1015400009F10109F3E70020BDE8F0872DE9F04338
:1015500017460A7E85B06E2A984606460C460C9BB6
:1015600001F1430E00F0AE8011D8632A22D009D8D1
:10157000002A00F0BB80582A40F0CA8081F845203C
:10158000834955E0642A1ED0692A1CD0C0E0732A22
:1015900000F0B08009D86F2A2ED0702A40F0B880B1
:1015A0000A6842F020020A603EE0752A24D0782AB8
:1015B0003AD0ADE01A6801F14205111D19601368B7
:1015C00084F84230A8E021681A6811F0800F02D038
:1015D000111D196008E011F0400F02F104011960BB
:1015E00002D0B2F9003000E01368002B3CDA2D2263
:1015F0005B4284F8432037E021681A6811F0800FBD
:1016000002D0111D196007E011F0400F02F1040132
:10161000196001D0138800E01368227E5C496F2AAC
:1016200014BF0A2208221BE078225A4984F8452078
:101630002268186812F0800F00F104051D6003D1C4
:10164000550601D5038800E00368D00744BF42F087
:10165000200222601BB9226822F0200222601022A0
:10166000002084F8430001E049490A226568A5602A
:10167000002D08DB206820F0040020602BB9002D2D
:101680007DD175460CE0002B79D07546B3FBF2F0A6
:1016900002FB1033CB5C05F8013D03460028F5D171
:1016A000082A0BD12368DA0708D5236962689A42B1
:1016B000DEBF302305F8013C05F1FF35C5EB0E0315
:1016C00023612EE008681A68496910F0800F03D082
:1016D000101D1860136808E010F0400F02F10400BC
:1016E0001860136801D0198000E01960002323619D
:1016F000754616E01A68111D1960156862680021A8
:10170000284600F04DF808B1401B6060636804E0B3
:1017100004F1420584F8422001232361002384F868
:101720004330CDF800803B4603AA21463046FFF700
:1017300097FE013002D14FF0FF3026E023692A46A0
:1017400039463046C0470130F5D023689B0710D595
:10175000002504F1190907E001234A4639463046BD
:10176000C0470130E7D00135E368039A9B1A9D42D8
:10177000F2DBE068039B9842B8BF184605E00B789F
:1017800084F8423004F142058AE705B0BDE8F083F1
:10179000A51C0008B61C00080000000000000000A6
:1017A00001F0FF01102A2BDB10F0070F08D010F812
:1017B000013B013A8B422DD010F0070F42B3F6D116
:1017C000F0B441EA012141EA014122F007047FF02F
:1017D00000070023F0E80256083C85EA010586EA86
:1017E000010685FA47F5A3FA87F586FA47F6A5FAC2
:1017F00087F68EB9EED1F0BC01F0FF0102F00702CE
:1018000032B110F8013B013A83EA010313B1F8D178
:101810000020704701387047002D06BF3546033859
:10182000073815F0010F07D1013015F4807F02BF92
:10183000013015F4C03F0130F0BC0138704700BFE3
:1018400010B5431E0A44914204D011F8014B03F82D
:10185000014FF8E710BD884210B501EB020301D833
:10186000421E0BE09842FBD28118D21AD34204D018
:1018700013F8014D01F8014DF8E710BD994204D06D
:1018800011F8014B02F8014FF8E710BD38B50546D5
:10189000002946D051F8043C0C1F002BB8BFE418B7
:1018A00000F0D6F81F4A1368114613B9636014603C
:1018B00032E0A3420ED92268A018834204BF186800
:1018C0005B68636004BF121822600C6024E0A242CF
:1018D00003D813465A68002AF9D118681918A1428A
:1018E0000BD12168014458188242196014D1106844
:1018F00052685A60014419600EE002D90C232B6033
:101900000AE021686018824204BF10685268626071
:1019100004BF091821605C602846BDE8384000F02B
:1019200098B838BD5001002070B5CD1C25F00305D6
:1019300008350C2D38BF0C25002D064601DBA942C9
:1019400002D90C23336046E000F082F8234B1C6878
:101950001A462146A1B10B685B1B0ED40B2B03D991
:101960000B60CC18CD501EE08C420DBF63684B68F5
:101970006360136018BF0C4615E00C464968E9E740
:10198000174C23681BB9304600F052F820602946F6
:10199000304600F04DF8431C18D0C41C24F003045A
:1019A000A0420DD12560304600F053F804F10B0041
:1019B000231D20F00700C31A0ED05A42E25070BD1A
:1019C000211A304600F034F80130EBD10C2333609B
:1019D000304600F03EF8002070BD00BF50010020EE
:1019E0004C010020F8B5074615460E4621B91146B0
:1019F000BDE8F840FFF798BF1AB9FFF747FF284640
:101A0000F8BD00F027F885420ED929463846FFF781
:101A10008BFF044650B131462A46FFF711FF31468D
:101A20003846FFF733FF01E03046F8BD2046F8BDE9
:101A300038B5064C0023054608462360FEF7F2FC45
:101A4000431C02D1236803B12B6038BD5401002030
:101A50007047704751F8040C0028BEBF091851F8B0
:101A6000043CC01804387047537461636B2066727D
:101A7000616D653A0A000000205230203D2020258B
:101A80003038580A00000000205231203D20202527
:101A90003038580A00000000205232203D20202516
:101AA0003038580A00000000205233203D20202505
:101AB0003038580A0000000020523132203D2025E5
:101AC0003038580A00000000204C52203D202025CC
:101AD0003038580A00000000205043203D202025C7
:101AE0003038580A0000000020505352203D202575
:101AF0003038580A000000004653522F4641523AEF
:101B00000A0000002043465352203D202025303853
:101B1000580A00002048465352203D2020253038E6
:101B2000580A00002044465352203D2020253038DA
:101B3000580A00002041465352203D2020253038CD
:101B4000580A0000204D4D464152203D2025303896
:101B5000580A00002042464152203D2020253038BE
:101B6000580A00004D6973630A000000204C522F90
:101B70004558435F52455455524E3D202530385804
:101B80000A0000005B486172644661756C745D0A0E
:101B9000000000005B4275734661756C745D0A005D
:101BA0005B55736167654661756C745D0A00000082
:101BB00000000000000000000102030406070809FD
:101BC0000000024000000000000002400100000090
:101BD000000002400200000000000240030000007C
:101BE0000000024004000000000002400500000068
:101BF0000000024006000000000002400700000054
:101C00000004024000000000000802400E00000036
:101C1000000802400F00000000040240060000001F
:101C20000004024007000000000402400800000019
:101C300000040240090000003738392F3435362AB5
:101C40003132332D23303D2B0004024005000000CB
:101C500000040240040000000004024003000000F1
:101C6000000002400C00000074696D65203D2030CA
:101C700000000000510B00080200000011110008D4
:101C800002000000690A000802000000690E000856
:101C900014000000232D302B2000686C4C0065667A
:101CA00067454647003031323334353637383941AD
:101CB00042434445460030313233343536373839C3
:071CC00061626364656600C8
:101CC8007856341294000020000000000024F4002C
:101CD800202020202020202020202020202020001C
:101CE8000000FFFF000000000000000000000000EE
:101CF80000000000000000000000000000000000DC
:101D080000000000000000000000000000000000CB
:101D180000000000000000000000000000000000BB
:101D280000000000000000000000000000000000AB
:101D3800000000000000000000000000000000009B
:0C1D4800000000002400002032547698B7
:040000050800019559
:00000001FF
